{"abi":[{"type":"function","name":"approve","inputs":[{"name":"to","type":"address","internalType":"address"},{"name":"tokenId","type":"uint256","internalType":"uint256"}],"outputs":[],"stateMutability":"nonpayable"},{"type":"function","name":"balanceOf","inputs":[{"name":"","type":"address","internalType":"address"}],"outputs":[{"name":"","type":"uint256","internalType":"uint256"}],"stateMutability":"view"},{"type":"function","name":"getApproved","inputs":[{"name":"","type":"uint256","internalType":"uint256"}],"outputs":[{"name":"","type":"address","internalType":"address"}],"stateMutability":"view"},{"type":"function","name":"mint","inputs":[{"name":"to","type":"address","internalType":"address"},{"name":"metadataURI","type":"string","internalType":"string"}],"outputs":[{"name":"","type":"uint256","internalType":"uint256"}],"stateMutability":"nonpayable"},{"type":"function","name":"name","inputs":[],"outputs":[{"name":"","type":"string","internalType":"string"}],"stateMutability":"pure"},{"type":"function","name":"ownerOf","inputs":[{"name":"","type":"uint256","internalType":"uint256"}],"outputs":[{"name":"","type":"address","internalType":"address"}],"stateMutability":"view"},{"type":"function","name":"symbol","inputs":[],"outputs":[{"name":"","type":"string","internalType":"string"}],"stateMutability":"pure"},{"type":"function","name":"tokenURI","inputs":[{"name":"tokenId","type":"uint256","internalType":"uint256"}],"outputs":[{"name":"","type":"string","internalType":"string"}],"stateMutability":"view"},{"type":"function","name":"transferFrom","inputs":[{"name":"from","type":"address","internalType":"address"},{"name":"to","type":"address","internalType":"address"},{"name":"tokenId","type":"uint256","internalType":"uint256"}],"outputs":[],"stateMutability":"nonpayable"},{"type":"event","name":"Approval","inputs":[{"name":"owner","type":"address","indexed":true,"internalType":"address"},{"name":"approved","type":"address","indexed":true,"internalType":"address"},{"name":"tokenId","type":"uint256","indexed":true,"internalType":"uint256"}],"anonymous":false},{"type":"event","name":"Transfer","inputs":[{"name":"from","type":"address","indexed":true,"internalType":"address"},{"name":"to","type":"address","indexed":true,"internalType":"address"},{"name":"tokenId","type":"uint256","indexed":true,"internalType":"uint256"}],"anonymous":false}],"bytecode":{"object":"0x608060405260015f553480156012575f5ffd5b506114dd806100205f395ff3fe608060405234801561000f575f5ffd5b5060043610610091575f3560e01c80636352211e116100645780636352211e1461011b57806370a082311461014b57806395d89b411461017b578063c87b56dd14610199578063d0def521146101c957610091565b806306fdde0314610095578063081812fc146100b3578063095ea7b3146100e357806323b872dd146100ff575b5f5ffd5b61009d6101f9565b6040516100aa9190610b19565b60405180910390f35b6100cd60048036038101906100c89190610b7d565b610236565b6040516100da9190610be7565b60405180910390f35b6100fd60048036038101906100f89190610c2a565b610266565b005b61011960048036038101906101149190610c68565b6103b4565b005b61013560048036038101906101309190610b7d565b61073a565b6040516101429190610be7565b60405180910390f35b61016560048036038101906101609190610cb8565b61076a565b6040516101729190610cf2565b60405180910390f35b61018361077f565b6040516101909190610b19565b60405180910390f35b6101b360048036038101906101ae9190610b7d565b6107bc565b6040516101c09190610b19565b60405180910390f35b6101e360048036038101906101de9190610e37565b6108fb565b6040516101f09190610cf2565b60405180910390f35b60606040518060400160405280601181526020017f666573746976616c6772656574696e6773000000000000000000000000000000815250905090565b6003602052805f5260405f205f915054906101000a900473ffffffffffffffffffffffffffffffffffffffff1681565b8060015f8281526020019081526020015f205f9054906101000a900473ffffffffffffffffffffffffffffffffffffffff1673ffffffffffffffffffffffffffffffffffffffff163373ffffffffffffffffffffffffffffffffffffffff1614610305576040517f08c379a00000000000000000000000000000000000000000000000000000000081526004016102fc90610edb565b60405180910390fd5b8260035f8481526020019081526020015f205f6101000a81548173ffffffffffffffffffffffffffffffffffffffff021916908373ffffffffffffffffffffffffffffffffffffffff160217905550818373ffffffffffffffffffffffffffffffffffffffff163373ffffffffffffffffffffffffffffffffffffffff167f8c5be1e5ebec7d5bd14f71427d1e84f3dd0314c0f7b2291e5b200ac8c7c3b92560405160405180910390a4505050565b60015f8281526020019081526020015f205f9054906101000a900473ffffffffffffffffffffffffffffffffffffffff1673ffffffffffffffffffffffffffffffffffffffff168373ffffffffffffffffffffffffffffffffffffffff1614610452576040517f08c379a000000000000000000000000000000000000000000000000000000000815260040161044990610f43565b60405180910390fd5b5f73ffffffffffffffffffffffffffffffffffffffff168273ffffffffffffffffffffffffffffffffffffffff16036104c0576040517f08c379a00000000000000000000000000000000000000000000000000000000081526004016104b790610fab565b60405180910390fd5b8273ffffffffffffffffffffffffffffffffffffffff163373ffffffffffffffffffffffffffffffffffffffff161480610555575060035f8281526020019081526020015f205f9054906101000a900473ffffffffffffffffffffffffffffffffffffffff1673ffffffffffffffffffffffffffffffffffffffff163373ffffffffffffffffffffffffffffffffffffffff16145b610594576040517f08c379a000000000000000000000000000000000000000000000000000000000815260040161058b90611013565b60405180910390fd5b5f60035f8381526020019081526020015f205f6101000a81548173ffffffffffffffffffffffffffffffffffffffff021916908373ffffffffffffffffffffffffffffffffffffffff160217905550600160025f8573ffffffffffffffffffffffffffffffffffffffff1673ffffffffffffffffffffffffffffffffffffffff1681526020019081526020015f205f828254610630919061105e565b92505081905550600160025f8473ffffffffffffffffffffffffffffffffffffffff1673ffffffffffffffffffffffffffffffffffffffff1681526020019081526020015f205f8282546106849190611091565b925050819055508160015f8381526020019081526020015f205f6101000a81548173ffffffffffffffffffffffffffffffffffffffff021916908373ffffffffffffffffffffffffffffffffffffffff160217905550808273ffffffffffffffffffffffffffffffffffffffff168473ffffffffffffffffffffffffffffffffffffffff167fddf252ad1be2c89b69c2b068fc378daa952ba7f163c4a11628f55a4df523b3ef60405160405180910390a4505050565b6001602052805f5260405f205f915054906101000a900473ffffffffffffffffffffffffffffffffffffffff1681565b6002602052805f5260405f205f915090505481565b60606040518060400160405280600581526020017f4647525453000000000000000000000000000000000000000000000000000000815250905090565b60605f73ffffffffffffffffffffffffffffffffffffffff1660015f8481526020019081526020015f205f9054906101000a900473ffffffffffffffffffffffffffffffffffffffff1673ffffffffffffffffffffffffffffffffffffffff160361085c576040517f08c379a00000000000000000000000000000000000000000000000000000000081526004016108539061110e565b60405180910390fd5b60045f8381526020019081526020015f20805461087890611159565b80601f01602080910402602001604051908101604052809291908181526020018280546108a490611159565b80156108ef5780601f106108c6576101008083540402835291602001916108ef565b820191905f5260205f20905b8154815290600101906020018083116108d257829003601f168201915b50505050509050919050565b5f5f73ffffffffffffffffffffffffffffffffffffffff168373ffffffffffffffffffffffffffffffffffffffff160361096a576040517f08c379a0000000000000000000000000000000000000000000000000000000008152600401610961906111d3565b60405180910390fd5b5f5f5f81548092919061097c906111f1565b9190505590508360015f8381526020019081526020015f205f6101000a81548173ffffffffffffffffffffffffffffffffffffffff021916908373ffffffffffffffffffffffffffffffffffffffff160217905550600160025f8673ffffffffffffffffffffffffffffffffffffffff1673ffffffffffffffffffffffffffffffffffffffff1681526020019081526020015f205f828254610a1e9190611091565b925050819055508260045f8381526020019081526020015f209081610a4391906113d8565b50808473ffffffffffffffffffffffffffffffffffffffff165f73ffffffffffffffffffffffffffffffffffffffff167fddf252ad1be2c89b69c2b068fc378daa952ba7f163c4a11628f55a4df523b3ef60405160405180910390a48091505092915050565b5f81519050919050565b5f82825260208201905092915050565b8281835e5f83830152505050565b5f601f19601f8301169050919050565b5f610aeb82610aa9565b610af58185610ab3565b9350610b05818560208601610ac3565b610b0e81610ad1565b840191505092915050565b5f6020820190508181035f830152610b318184610ae1565b905092915050565b5f604051905090565b5f5ffd5b5f5ffd5b5f819050919050565b610b5c81610b4a565b8114610b66575f5ffd5b50565b5f81359050610b7781610b53565b92915050565b5f60208284031215610b9257610b91610b42565b5b5f610b9f84828501610b69565b91505092915050565b5f73ffffffffffffffffffffffffffffffffffffffff82169050919050565b5f610bd182610ba8565b9050919050565b610be181610bc7565b82525050565b5f602082019050610bfa5f830184610bd8565b92915050565b610c0981610bc7565b8114610c13575f5ffd5b50565b5f81359050610c2481610c00565b92915050565b5f5f60408385031215610c4057610c3f610b42565b5b5f610c4d85828601610c16565b9250506020610c5e85828601610b69565b9150509250929050565b5f5f5f60608486031215610c7f57610c7e610b42565b5b5f610c8c86828701610c16565b9350506020610c9d86828701610c16565b9250506040610cae86828701610b69565b9150509250925092565b5f60208284031215610ccd57610ccc610b42565b5b5f610cda84828501610c16565b91505092915050565b610cec81610b4a565b82525050565b5f602082019050610d055f830184610ce3565b92915050565b5f5ffd5b5f5ffd5b7f4e487b71000000000000000000000000000000000000000000000000000000005f52604160045260245ffd5b610d4982610ad1565b810181811067ffffffffffffffff82111715610d6857610d67610d13565b5b80604052505050565b5f610d7a610b39565b9050610d868282610d40565b919050565b5f67ffffffffffffffff821115610da557610da4610d13565b5b610dae82610ad1565b9050602081019050919050565b828183375f83830152505050565b5f610ddb610dd684610d8b565b610d71565b905082815260208101848484011115610df757610df6610d0f565b5b610e02848285610dbb565b509392505050565b5f82601f830112610e1e57610e1d610d0b565b5b8135610e2e848260208601610dc9565b91505092915050565b5f5f60408385031215610e4d57610e4c610b42565b5b5f610e5a85828601610c16565b925050602083013567ffffffffffffffff811115610e7b57610e7a610b46565b5b610e8785828601610e0a565b9150509250929050565b7f4e6f7420746f6b656e206f776e657200000000000000000000000000000000005f82015250565b5f610ec5600f83610ab3565b9150610ed082610e91565b602082019050919050565b5f6020820190508181035f830152610ef281610eb9565b9050919050565b7f46726f6d206973206e6f74206f776e65720000000000000000000000000000005f82015250565b5f610f2d601183610ab3565b9150610f3882610ef9565b602082019050919050565b5f6020820190508181035f830152610f5a81610f21565b9050919050565b7f43616e6e6f74207472616e7366657220746f207a65726f0000000000000000005f82015250565b5f610f95601783610ab3565b9150610fa082610f61565b602082019050919050565b5f6020820190508181035f830152610fc281610f89565b9050919050565b7f4e6f7420617574686f72697a65640000000000000000000000000000000000005f82015250565b5f610ffd600e83610ab3565b915061100882610fc9565b602082019050919050565b5f6020820190508181035f83015261102a81610ff1565b9050919050565b7f4e487b71000000000000000000000000000000000000000000000000000000005f52601160045260245ffd5b5f61106882610b4a565b915061107383610b4a565b925082820390508181111561108b5761108a611031565b5b92915050565b5f61109b82610b4a565b91506110a683610b4a565b92508282019050808211156110be576110bd611031565b5b92915050565b7f4e6f6e6578697374656e7420746f6b656e0000000000000000000000000000005f82015250565b5f6110f8601183610ab3565b9150611103826110c4565b602082019050919050565b5f6020820190508181035f830152611125816110ec565b9050919050565b7f4e487b71000000000000000000000000000000000000000000000000000000005f52602260045260245ffd5b5f600282049050600182168061117057607f821691505b6020821081036111835761118261112c565b5b50919050565b7f496e76616c6964206164647265737300000000000000000000000000000000005f82015250565b5f6111bd600f83610ab3565b91506111c882611189565b602082019050919050565b5f6020820190508181035f8301526111ea816111b1565b9050919050565b5f6111fb82610b4a565b91507fffffffffffffffffffffffffffffffffffffffffffffffffffffffffffffffff820361122d5761122c611031565b5b600182019050919050565b5f819050815f5260205f209050919050565b5f6020601f8301049050919050565b5f82821b905092915050565b5f600883026112947fffffffffffffffffffffffffffffffffffffffffffffffffffffffffffffffff82611259565b61129e8683611259565b95508019841693508086168417925050509392505050565b5f819050919050565b5f6112d96112d46112cf84610b4a565b6112b6565b610b4a565b9050919050565b5f819050919050565b6112f2836112bf565b6113066112fe826112e0565b848454611265565b825550505050565b5f5f905090565b61131d61130e565b6113288184846112e9565b505050565b5b8181101561134b576113405f82611315565b60018101905061132e565b5050565b601f8211156113905761136181611238565b61136a8461124a565b81016020851015611379578190505b61138d6113858561124a565b83018261132d565b50505b505050565b5f82821c905092915050565b5f6113b05f1984600802611395565b1980831691505092915050565b5f6113c883836113a1565b9150826002028217905092915050565b6113e182610aa9565b67ffffffffffffffff8111156113fa576113f9610d13565b5b6114048254611159565b61140f82828561134f565b5f60209050601f831160018114611440575f841561142e578287015190505b61143885826113bd565b86555061149f565b601f19841661144e86611238565b5f5b8281101561147557848901518255600182019150602085019450602081019050611450565b86831015611492578489015161148e601f8916826113a1565b8355505b6001600288020188555050505b50505050505056fea264697066735822122094c3631a12cc2cb9f3af62e17c3d85690d245838634cc524f2fae29a7e6c14fe64736f6c634300081c0033","linkReferences":{}},"methodIdentifiers":{"approve(address,uint256)":"095ea7b3","balanceOf(address)":"70a08231","getApproved(uint256)":"081812fc","mint(address,string)":"d0def521","name()":"06fdde03","ownerOf(uint256)":"6352211e","symbol()":"95d89b41","tokenURI(uint256)":"c87b56dd","transferFrom(address,address,uint256)":"23b872dd"},"id":22}