{"abi":[{"type":"function","name":"approve","inputs":[{"name":"to","type":"address","internalType":"address"},{"name":"tokenId","type":"uint256","internalType":"uint256"}],"outputs":[],"stateMutability":"nonpayable"},{"type":"function","name":"balanceOf","inputs":[{"name":"","type":"address","internalType":"address"}],"outputs":[{"name":"","type":"uint256","internalType":"uint256"}],"stateMutability":"view"},{"type":"function","name":"exists","inputs":[{"name":"tokenId","type":"uint256","internalType":"uint256"}],"outputs":[{"name":"","type":"bool","internalType":"bool"}],"stateMutability":"view"},{"type":"function","name":"getApproved","inputs":[{"name":"","type":"uint256","internalType":"uint256"}],"outputs":[{"name":"","type":"address","internalType":"address"}],"stateMutability":"view"},{"type":"function","name":"isApprovedForAll","inputs":[{"name":"","type":"address","internalType":"address"},{"name":"","type":"address","internalType":"address"}],"outputs":[{"name":"","type":"bool","internalType":"bool"}],"stateMutability":"view"},{"type":"function","name":"mint","inputs":[{"name":"to","type":"address","internalType":"address"},{"name":"metadataURI","type":"string","internalType":"string"}],"outputs":[{"name":"","type":"uint256","internalType":"uint256"}],"stateMutability":"nonpayable"},{"type":"function","name":"name","inputs":[],"outputs":[{"name":"","type":"string","internalType":"string"}],"stateMutability":"pure"},{"type":"function","name":"ownerOf","inputs":[{"name":"","type":"uint256","internalType":"uint256"}],"outputs":[{"name":"","type":"address","internalType":"address"}],"stateMutability":"view"},{"type":"function","name":"safeTransferFrom","inputs":[{"name":"from","type":"address","internalType":"address"},{"name":"to","type":"address","internalType":"address"},{"name":"tokenId","type":"uint256","internalType":"uint256"}],"outputs":[],"stateMutability":"nonpayable"},{"type":"function","name":"safeTransferFrom","inputs":[{"name":"from","type":"address","internalType":"address"},{"name":"to","type":"address","internalType":"address"},{"name":"tokenId","type":"uint256","internalType":"uint256"},{"name":"data","type":"bytes","internalType":"bytes"}],"outputs":[],"stateMutability":"nonpayable"},{"type":"function","name":"setApprovalForAll","inputs":[{"name":"operator","type":"address","internalType":"address"},{"name":"approved","type":"bool","internalType":"bool"}],"outputs":[],"stateMutability":"nonpayable"},{"type":"function","name":"supportsInterface","inputs":[{"name":"interfaceId","type":"bytes4","internalType":"bytes4"}],"outputs":[{"name":"","type":"bool","internalType":"bool"}],"stateMutability":"view"},{"type":"function","name":"symbol","inputs":[],"outputs":[{"name":"","type":"string","internalType":"string"}],"stateMutability":"pure"},{"type":"function","name":"tokenURI","inputs":[{"name":"tokenId","type":"uint256","internalType":"uint256"}],"outputs":[{"name":"","type":"string","internalType":"string"}],"stateMutability":"view"},{"type":"function","name":"totalSupply","inputs":[],"outputs":[{"name":"","type":"uint256","internalType":"uint256"}],"stateMutability":"view"},{"type":"function","name":"transferFrom","inputs":[{"name":"from","type":"address","internalType":"address"},{"name":"to","type":"address","internalType":"address"},{"name":"tokenId","type":"uint256","internalType":"uint256"}],"outputs":[],"stateMutability":"nonpayable"},{"type":"event","name":"Approval","inputs":[{"name":"owner","type":"address","indexed":true,"internalType":"address"},{"name":"approved","type":"address","indexed":true,"internalType":"address"},{"name":"tokenId","type":"uint256","indexed":true,"internalType":"uint256"}],"anonymous":false},{"type":"event","name":"ApprovalForAll","inputs":[{"name":"owner","type":"address","indexed":true,"internalType":"address"},{"name":"operator","type":"address","indexed":true,"internalType":"address"},{"name":"approved","type":"bool","indexed":false,"internalType":"bool"}],"anonymous":false},{"type":"event","name":"Transfer","inputs":[{"name":"from","type":"address","indexed":true,"internalType":"address"},{"name":"to","type":"address","indexed":true,"internalType":"address"},{"name":"tokenId","type":"uint256","indexed":true,"internalType":"uint256"}],"anonymous":false}],"bytecode":{"object":"0x608060405260015f553480156012575f5ffd5b5061212d806100205f395ff3fe608060405234801561000f575f5ffd5b50600436106100fe575f3560e01c80636352211e11610095578063b88d4fde11610064578063b88d4fde146102bc578063c87b56dd146102d8578063d0def52114610308578063e985e9c514610338576100fe565b80636352211e1461022257806370a082311461025257806395d89b4114610282578063a22cb465146102a0576100fe565b806318160ddd116100d157806318160ddd1461019c57806323b872dd146101ba57806342842e0e146101d65780634f558e79146101f2576100fe565b806301ffc9a71461010257806306fdde0314610132578063081812fc14610150578063095ea7b314610180575b5f5ffd5b61011c6004803603810190610117919061133d565b610368565b6040516101299190611382565b60405180910390f35b61013a6104a1565b604051610147919061140b565b60405180910390f35b61016a6004803603810190610165919061145e565b6104de565b60405161017791906114c8565b60405180910390f35b61019a6004803603810190610195919061150b565b61050e565b005b6101a4610759565b6040516101b19190611558565b60405180910390f35b6101d460048036038101906101cf9190611571565b61076d565b005b6101f060048036038101906101eb9190611571565b610b7f565b005b61020c6004803603810190610207919061145e565b610b9e565b6040516102199190611382565b60405180910390f35b61023c6004803603810190610237919061145e565b610c06565b60405161024991906114c8565b60405180910390f35b61026c600480360381019061026791906115c1565b610c36565b6040516102799190611558565b60405180910390f35b61028a610c4b565b604051610297919061140b565b60405180910390f35b6102ba60048036038101906102b59190611616565b610c88565b005b6102d660048036038101906102d19190611780565b610dee565b005b6102f260048036038101906102ed919061145e565b610e4a565b6040516102ff919061140b565b60405180910390f35b610322600480360381019061031d919061189e565b610f89565b60405161032f9190611558565b60405180910390f35b610352600480360381019061034d91906118f8565b611137565b60405161035f9190611382565b60405180910390f35b5f7f80ac58cd000000000000000000000000000000000000000000000000000000007bffffffffffffffffffffffffffffffffffffffffffffffffffffffff1916827bffffffffffffffffffffffffffffffffffffffffffffffffffffffff1916148061043257507f5b5e139f000000000000000000000000000000000000000000000000000000007bffffffffffffffffffffffffffffffffffffffffffffffffffffffff1916827bffffffffffffffffffffffffffffffffffffffffffffffffffffffff1916145b8061049a57507f01ffc9a7000000000000000000000000000000000000000000000000000000007bffffffffffffffffffffffffffffffffffffffffffffffffffffffff1916827bffffffffffffffffffffffffffffffffffffffffffffffffffffffff1916145b9050919050565b60606040518060400160405280601181526020017f46657374696679204772656574696e6773000000000000000000000000000000815250905090565b6003602052805f5260405f205f915054906101000a900473ffffffffffffffffffffffffffffffffffffffff1681565b5f60015f8381526020019081526020015f205f9054906101000a900473ffffffffffffffffffffffffffffffffffffffff1690508073ffffffffffffffffffffffffffffffffffffffff168373ffffffffffffffffffffffffffffffffffffffff16036105b0576040517f08c379a00000000000000000000000000000000000000000000000000000000081526004016105a790611980565b60405180910390fd5b8073ffffffffffffffffffffffffffffffffffffffff163373ffffffffffffffffffffffffffffffffffffffff16148061066b575060045f8273ffffffffffffffffffffffffffffffffffffffff1673ffffffffffffffffffffffffffffffffffffffff1681526020019081526020015f205f3373ffffffffffffffffffffffffffffffffffffffff1673ffffffffffffffffffffffffffffffffffffffff1681526020019081526020015f205f9054906101000a900460ff165b6106aa576040517f08c379a00000000000000000000000000000000000000000000000000000000081526004016106a1906119e8565b60405180910390fd5b8260035f8481526020019081526020015f205f6101000a81548173ffffffffffffffffffffffffffffffffffffffff021916908373ffffffffffffffffffffffffffffffffffffffff160217905550818373ffffffffffffffffffffffffffffffffffffffff168273ffffffffffffffffffffffffffffffffffffffff167f8c5be1e5ebec7d5bd14f71427d1e84f3dd0314c0f7b2291e5b200ac8c7c3b92560405160405180910390a4505050565b5f60015f546107689190611a33565b905090565b60015f8281526020019081526020015f205f9054906101000a900473ffffffffffffffffffffffffffffffffffffffff1673ffffffffffffffffffffffffffffffffffffffff168373ffffffffffffffffffffffffffffffffffffffff161461080b576040517f08c379a000000000000000000000000000000000000000000000000000000000815260040161080290611ab0565b60405180910390fd5b5f73ffffffffffffffffffffffffffffffffffffffff168273ffffffffffffffffffffffffffffffffffffffff1603610879576040517f08c379a000000000000000000000000000000000000000000000000000000000815260040161087090611b18565b60405180910390fd5b8273ffffffffffffffffffffffffffffffffffffffff163373ffffffffffffffffffffffffffffffffffffffff16148061090e575060035f8281526020019081526020015f205f9054906101000a900473ffffffffffffffffffffffffffffffffffffffff1673ffffffffffffffffffffffffffffffffffffffff163373ffffffffffffffffffffffffffffffffffffffff16145b8061099a575060045f8473ffffffffffffffffffffffffffffffffffffffff1673ffffffffffffffffffffffffffffffffffffffff1681526020019081526020015f205f3373ffffffffffffffffffffffffffffffffffffffff1673ffffffffffffffffffffffffffffffffffffffff1681526020019081526020015f205f9054906101000a900460ff165b6109d9576040517f08c379a00000000000000000000000000000000000000000000000000000000081526004016109d0906119e8565b60405180910390fd5b5f60035f8381526020019081526020015f205f6101000a81548173ffffffffffffffffffffffffffffffffffffffff021916908373ffffffffffffffffffffffffffffffffffffffff160217905550600160025f8573ffffffffffffffffffffffffffffffffffffffff1673ffffffffffffffffffffffffffffffffffffffff1681526020019081526020015f205f828254610a759190611a33565b92505081905550600160025f8473ffffffffffffffffffffffffffffffffffffffff1673ffffffffffffffffffffffffffffffffffffffff1681526020019081526020015f205f828254610ac99190611b36565b925050819055508160015f8381526020019081526020015f205f6101000a81548173ffffffffffffffffffffffffffffffffffffffff021916908373ffffffffffffffffffffffffffffffffffffffff160217905550808273ffffffffffffffffffffffffffffffffffffffff168473ffffffffffffffffffffffffffffffffffffffff167fddf252ad1be2c89b69c2b068fc378daa952ba7f163c4a11628f55a4df523b3ef60405160405180910390a4505050565b610b9983838360405180602001604052805f815250610dee565b505050565b5f5f73ffffffffffffffffffffffffffffffffffffffff1660015f8481526020019081526020015f205f9054906101000a900473ffffffffffffffffffffffffffffffffffffffff1673ffffffffffffffffffffffffffffffffffffffff1614159050919050565b6001602052805f5260405f205f915054906101000a900473ffffffffffffffffffffffffffffffffffffffff1681565b6002602052805f5260405f205f915090505481565b60606040518060400160405280600581526020017f4647525453000000000000000000000000000000000000000000000000000000815250905090565b3373ffffffffffffffffffffffffffffffffffffffff168273ffffffffffffffffffffffffffffffffffffffff1603610cf6576040517f08c379a0000000000000000000000000000000000000000000000000000000008152600401610ced90611bb3565b60405180910390fd5b8060045f3373ffffffffffffffffffffffffffffffffffffffff1673ffffffffffffffffffffffffffffffffffffffff1681526020019081526020015f205f8473ffffffffffffffffffffffffffffffffffffffff1673ffffffffffffffffffffffffffffffffffffffff1681526020019081526020015f205f6101000a81548160ff0219169083151502179055508173ffffffffffffffffffffffffffffffffffffffff163373ffffffffffffffffffffffffffffffffffffffff167f17307eab39ab6107e8899845ad3d59bd9653f200f220920489ca2b5937696c3183604051610de29190611382565b60405180910390a35050565b610df984848461076d565b610e0584848484611161565b610e44576040517f08c379a0000000000000000000000000000000000000000000000000000000008152600401610e3b90611c1b565b60405180910390fd5b50505050565b60605f73ffffffffffffffffffffffffffffffffffffffff1660015f8481526020019081526020015f205f9054906101000a900473ffffffffffffffffffffffffffffffffffffffff1673ffffffffffffffffffffffffffffffffffffffff1603610eea576040517f08c379a0000000000000000000000000000000000000000000000000000000008152600401610ee190611c83565b60405180910390fd5b60055f8381526020019081526020015f208054610f0690611cce565b80601f0160208091040260200160405190810160405280929190818152602001828054610f3290611cce565b8015610f7d5780601f10610f5457610100808354040283529160200191610f7d565b820191905f5260205f20905b815481529060010190602001808311610f6057829003601f168201915b50505050509050919050565b5f5f73ffffffffffffffffffffffffffffffffffffffff168373ffffffffffffffffffffffffffffffffffffffff1603610ff8576040517f08c379a0000000000000000000000000000000000000000000000000000000008152600401610fef90611d48565b60405180910390fd5b5f5f5f81548092919061100a90611d66565b9190505590508360015f8381526020019081526020015f205f6101000a81548173ffffffffffffffffffffffffffffffffffffffff021916908373ffffffffffffffffffffffffffffffffffffffff160217905550600160025f8673ffffffffffffffffffffffffffffffffffffffff1673ffffffffffffffffffffffffffffffffffffffff1681526020019081526020015f205f8282546110ac9190611b36565b925050819055508260055f8381526020019081526020015f2090816110d19190611f4d565b50808473ffffffffffffffffffffffffffffffffffffffff165f73ffffffffffffffffffffffffffffffffffffffff167fddf252ad1be2c89b69c2b068fc378daa952ba7f163c4a11628f55a4df523b3ef60405160405180910390a48091505092915050565b6004602052815f5260405f20602052805f5260405f205f915091509054906101000a900460ff1681565b5f5f8473ffffffffffffffffffffffffffffffffffffffff163b11156112ca578373ffffffffffffffffffffffffffffffffffffffff1663150b7a02338786866040518563ffffffff1660e01b81526004016111c0949392919061206e565b6020604051808303815f875af19250505080156111fb57506040513d601f19601f820116820180604052508101906111f891906120cc565b60015b61127a573d805f8114611229576040519150601f19603f3d011682016040523d82523d5f602084013e61122e565b606091505b505f815103611272576040517f08c379a000000000000000000000000000000000000000000000000000000000815260040161126990611c1b565b60405180910390fd5b805181602001fd5b63150b7a0260e01b7bffffffffffffffffffffffffffffffffffffffffffffffffffffffff1916817bffffffffffffffffffffffffffffffffffffffffffffffffffffffff1916149150506112cf565b600190505b949350505050565b5f604051905090565b5f5ffd5b5f5ffd5b5f7fffffffff0000000000000000000000000000000000000000000000000000000082169050919050565b61131c816112e8565b8114611326575f5ffd5b50565b5f8135905061133781611313565b92915050565b5f60208284031215611352576113516112e0565b5b5f61135f84828501611329565b91505092915050565b5f8115159050919050565b61137c81611368565b82525050565b5f6020820190506113955f830184611373565b92915050565b5f81519050919050565b5f82825260208201905092915050565b8281835e5f83830152505050565b5f601f19601f8301169050919050565b5f6113dd8261139b565b6113e781856113a5565b93506113f78185602086016113b5565b611400816113c3565b840191505092915050565b5f6020820190508181035f83015261142381846113d3565b905092915050565b5f819050919050565b61143d8161142b565b8114611447575f5ffd5b50565b5f8135905061145881611434565b92915050565b5f60208284031215611473576114726112e0565b5b5f6114808482850161144a565b91505092915050565b5f73ffffffffffffffffffffffffffffffffffffffff82169050919050565b5f6114b282611489565b9050919050565b6114c2816114a8565b82525050565b5f6020820190506114db5f8301846114b9565b92915050565b6114ea816114a8565b81146114f4575f5ffd5b50565b5f81359050611505816114e1565b92915050565b5f5f60408385031215611521576115206112e0565b5b5f61152e858286016114f7565b925050602061153f8582860161144a565b9150509250929050565b6115528161142b565b82525050565b5f60208201905061156b5f830184611549565b92915050565b5f5f5f60608486031215611588576115876112e0565b5b5f611595868287016114f7565b93505060206115a6868287016114f7565b92505060406115b78682870161144a565b9150509250925092565b5f602082840312156115d6576115d56112e0565b5b5f6115e3848285016114f7565b91505092915050565b6115f581611368565b81146115ff575f5ffd5b50565b5f81359050611610816115ec565b92915050565b5f5f6040838503121561162c5761162b6112e0565b5b5f611639858286016114f7565b925050602061164a85828601611602565b9150509250929050565b5f5ffd5b5f5ffd5b7f4e487b71000000000000000000000000000000000000000000000000000000005f52604160045260245ffd5b611692826113c3565b810181811067ffffffffffffffff821117156116b1576116b061165c565b5b80604052505050565b5f6116c36112d7565b90506116cf8282611689565b919050565b5f67ffffffffffffffff8211156116ee576116ed61165c565b5b6116f7826113c3565b9050602081019050919050565b828183375f83830152505050565b5f61172461171f846116d4565b6116ba565b9050828152602081018484840111156117405761173f611658565b5b61174b848285611704565b509392505050565b5f82601f83011261176757611766611654565b5b8135611777848260208601611712565b91505092915050565b5f5f5f5f60808587031215611798576117976112e0565b5b5f6117a5878288016114f7565b94505060206117b6878288016114f7565b93505060406117c78782880161144a565b925050606085013567ffffffffffffffff8111156117e8576117e76112e4565b5b6117f487828801611753565b91505092959194509250565b5f67ffffffffffffffff82111561181a5761181961165c565b5b611823826113c3565b9050602081019050919050565b5f61184261183d84611800565b6116ba565b90508281526020810184848401111561185e5761185d611658565b5b611869848285611704565b509392505050565b5f82601f83011261188557611884611654565b5b8135611895848260208601611830565b91505092915050565b5f5f604083850312156118b4576118b36112e0565b5b5f6118c1858286016114f7565b925050602083013567ffffffffffffffff8111156118e2576118e16112e4565b5b6118ee85828601611871565b9150509250929050565b5f5f6040838503121561190e5761190d6112e0565b5b5f61191b858286016114f7565b925050602061192c858286016114f7565b9150509250929050565b7f417070726f76616c20746f2063757272656e74206f776e6572000000000000005f82015250565b5f61196a6019836113a5565b915061197582611936565b602082019050919050565b5f6020820190508181035f8301526119978161195e565b9050919050565b7f4e6f7420617574686f72697a65640000000000000000000000000000000000005f82015250565b5f6119d2600e836113a5565b91506119dd8261199e565b602082019050919050565b5f6020820190508181035f8301526119ff816119c6565b9050919050565b7f4e487b71000000000000000000000000000000000000000000000000000000005f52601160045260245ffd5b5f611a3d8261142b565b9150611a488361142b565b9250828203905081811115611a6057611a5f611a06565b5b92915050565b7f46726f6d206973206e6f74206f776e65720000000000000000000000000000005f82015250565b5f611a9a6011836113a5565b9150611aa582611a66565b602082019050919050565b5f6020820190508181035f830152611ac781611a8e565b9050919050565b7f43616e6e6f74207472616e7366657220746f207a65726f0000000000000000005f82015250565b5f611b026017836113a5565b9150611b0d82611ace565b602082019050919050565b5f6020820190508181035f830152611b2f81611af6565b9050919050565b5f611b408261142b565b9150611b4b8361142b565b9250828201905080821115611b6357611b62611a06565b5b92915050565b7f417070726f766520746f2063616c6c65720000000000000000000000000000005f82015250565b5f611b9d6011836113a5565b9150611ba882611b69565b602082019050919050565b5f6020820190508181035f830152611bca81611b91565b9050919050565b7f5472616e7366657220746f206e6f6e20455243373231526563656976657200005f82015250565b5f611c05601e836113a5565b9150611c1082611bd1565b602082019050919050565b5f6020820190508181035f830152611c3281611bf9565b9050919050565b7f4e6f6e6578697374656e7420746f6b656e0000000000000000000000000000005f82015250565b5f611c6d6011836113a5565b9150611c7882611c39565b602082019050919050565b5f6020820190508181035f830152611c9a81611c61565b9050919050565b7f4e487b71000000000000000000000000000000000000000000000000000000005f52602260045260245ffd5b5f6002820490506001821680611ce557607f821691505b602082108103611cf857611cf7611ca1565b5b50919050565b7f496e76616c6964206164647265737300000000000000000000000000000000005f82015250565b5f611d32600f836113a5565b9150611d3d82611cfe565b602082019050919050565b5f6020820190508181035f830152611d5f81611d26565b9050919050565b5f611d708261142b565b91507fffffffffffffffffffffffffffffffffffffffffffffffffffffffffffffffff8203611da257611da1611a06565b5b600182019050919050565b5f819050815f5260205f209050919050565b5f6020601f8301049050919050565b5f82821b905092915050565b5f60088302611e097fffffffffffffffffffffffffffffffffffffffffffffffffffffffffffffffff82611dce565b611e138683611dce565b95508019841693508086168417925050509392505050565b5f819050919050565b5f611e4e611e49611e448461142b565b611e2b565b61142b565b9050919050565b5f819050919050565b611e6783611e34565b611e7b611e7382611e55565b848454611dda565b825550505050565b5f5f905090565b611e92611e83565b611e9d818484611e5e565b505050565b5b81811015611ec057611eb55f82611e8a565b600181019050611ea3565b5050565b601f821115611f0557611ed681611dad565b611edf84611dbf565b81016020851015611eee578190505b611f02611efa85611dbf565b830182611ea2565b50505b505050565b5f82821c905092915050565b5f611f255f1984600802611f0a565b1980831691505092915050565b5f611f3d8383611f16565b9150826002028217905092915050565b611f568261139b565b67ffffffffffffffff811115611f6f57611f6e61165c565b5b611f798254611cce565b611f84828285611ec4565b5f60209050601f831160018114611fb5575f8415611fa3578287015190505b611fad8582611f32565b865550612014565b601f198416611fc386611dad565b5f5b82811015611fea57848901518255600182019150602085019450602081019050611fc5565b868310156120075784890151612003601f891682611f16565b8355505b6001600288020188555050505b505050505050565b5f81519050919050565b5f82825260208201905092915050565b5f6120408261201c565b61204a8185612026565b935061205a8185602086016113b5565b612063816113c3565b840191505092915050565b5f6080820190506120815f8301876114b9565b61208e60208301866114b9565b61209b6040830185611549565b81810360608301526120ad8184612036565b905095945050505050565b5f815190506120c681611313565b92915050565b5f602082840312156120e1576120e06112e0565b5b5f6120ee848285016120b8565b9150509291505056fea2646970667358221220896b2380153322c39970b227839c5b32cf48ddbfa9997722064972ea5150e85b64736f6c634300081c0033","linkReferences":{}},"methodIdentifiers":{"approve(address,uint256)":"095ea7b3","balanceOf(address)":"70a08231","exists(uint256)":"4f558e79","getApproved(uint256)":"081812fc","isApprovedForAll(address,address)":"e985e9c5","mint(address,string)":"d0def521","name()":"06fdde03","ownerOf(uint256)":"6352211e","safeTransferFrom(address,address,uint256)":"42842e0e","safeTransferFrom(address,address,uint256,bytes)":"b88d4fde","setApprovalForAll(address,bool)":"a22cb465","supportsInterface(bytes4)":"01ffc9a7","symbol()":"95d89b41","tokenURI(uint256)":"c87b56dd","totalSupply()":"18160ddd","transferFrom(address,address,uint256)":"23b872dd"},"id":21}